:1000000000308A001B280000213084008313000880
:10001000031918280130F800F701F70B0D28F80B29
:100020000C284A30F700F70B13281628800B0A28F3
:100030008A110A12352803081F3983006C30A0008A
:1000400083161F149F141F159F1107309C008313E4
:10005000013088000030860083128601081C3D288C
:10006000200886000F30A10004280130A0020818E3
:0E007000372820080A3C0319A0012E2863003F
:02400E00412F40
:00000001FF
;PIC16F877A
;CRC=0505  CREATED="29-May-20 02:47"
